:100000000C9462000C948A000C948A000C948A0070
:100010000C948A000C948A000C948A000C948A0038
:100020000C948A000C948A000C948A000C948A0028
:100030000C948A000C948A000C948A000C948A0018
:100040000C94E40B0C948A000C94540C0C942E0C1D
:100050000C948A000C948A000C948A000C948A00F8
:100060000C94860C0C948A000000000024002700E9
:100070002A0000000000250028002B0000000000DE
:1000800023002600290004040404040404040202DA
:100090000202020203030303030301020408102007
:1000A0004080010204081020010204081020000012
:1000B0000008000201000003040700000000000027
:1000C00000001A0E11241FBECFEFD8E0DEBFCDBF57
:1000D00014E0A0E0B1E0EAE4F8E202C005900D927D
:1000E000AE35B107D9F726E0AEE5B4E001C01D9208
:1000F000AB30B207E1F710E0C2E6D0E004C02197D0
:10010000FE010E941D14C136D107C9F70E94850E59
:100110000C9423140C940000833081F028F4813077
:1001200099F08230A9F008958730A9F08830C9F09D
:100130008430B1F4809180008F7D03C08091800075
:100140008F7780938000089584B58F7784BD08955C
:1001500084B58F7DFBCF8091B0008F778093B00006
:1001600008958091B0008F7DF9CFCF93DF93282F32
:1001700030E0F901E255FF4F8491F901E656FF4F57
:10018000D491F901EA57FF4FC491CC23A1F081111A
:100190000E948C00EC2FF0E0EE0FFF1FE458FF4FA1
:1001A000A591B491EC91ED2381E090E009F480E019
:1001B000DF91CF91089580E090E0FACF1F93CF9325
:1001C000DF93282F30E0F901E255FF4F8491F901C8
:1001D000E656FF4FD491F901EA57FF4FC491CC2363
:1001E000A9F0162F81110E948C00EC2FF0E0EE0F89
:1001F000FF1FEE58FF4FA591B4918FB7F894EC9183
:10020000111108C0D095DE23DC938FBFDF91CF9111
:100210001F910895DE2BF8CFCF93DF9390E0FC0180
:10022000E656FF4F24918A579F4FFC018491882303
:10023000D1F090E0880F991FFC01E859FF4FA5917C
:10024000B491FC01EE58FF4FC591D491623071F426
:100250009FB7F8943C91822F809583238C93E881FB
:100260002E2B28839FBFDF91CF9108958FB7F894ED
:10027000EC912E2B2C938FBFF6CF8E3008F08E5042
:100280008770806480937C0080917A008064809382
:100290007A0080917A0086FDFCCF80917800909161
:1002A000790008953FB7F8948091390590913A0507
:1002B000A0913B05B0913C0526B5A89B05C02F3FFA
:1002C00019F00196A11DB11D3FBFBA2FA92F982F7C
:1002D0008827BC01CD01620F711D811D911D42E077
:1002E000660F771F881F991F4A95D1F708958F923F
:1002F0009F92AF92BF92CF92DF92EF92FF924B010B
:100300005C010E9452016B017C010E9452016C1938
:100310007D098E099F09683E734081059105A8F308
:1003200021E0821A9108A108B10888EEC80E83E086
:10033000D81EE11CF11C81149104A104B10429F719
:10034000FF90EF90DF90CF90BF90AF909F908F90F5
:10035000089508950895DC01ED91FC910190F081DC
:10036000E02D0994AF92BF92CF92DF92EF92FF926D
:100370000F931F93CF93DF936C017B018B01040FCD
:10038000151FEB015E01AE18BF08C017D10759F069
:100390006991D601ED91FC910190F081E02DC601AB
:1003A0000995892B79F7C501DF91CF911F910F91A5
:1003B000FF90EF90DF90CF90BF90AF900895FC0139
:1003C000538D448D252F30E0842F90E0821B930BBA
:1003D000541710F0CF96089501970895FC01918D60
:1003E000828D981761F0A28DAE0FBF2FB11D5D9663
:1003F0008C91928D9F5F9F73928F90E008958FEF05
:100400009FEF0895FC01918D828D981731F0828DB8
:10041000E80FF11D858D90E008958FEF9FEF08950F
:10042000FC01918D228D892F90E0805C9F4F821B73
:1004300091098F73992708958DE395E00E9410022A
:1004400021E0892B09F420E0822F089580E090E0DC
:10045000892B29F00E941C0281110C940000089540
:10046000FC01A48DA80FB92FB11DA35ABF4F2C9129
:10047000848D90E001968F739927848FA689B78920
:100480002C93A089B1898C91837080648C93938D17
:10049000848D981306C00288F389E02D80818F7DBA
:1004A00080830895EF92FF920F931F93CF93DF9372
:1004B000EC0181E0888F9B8D8C8D98131AC0E889A0
:1004C000F989808185FF15C09FB7F894EE89FF896F
:1004D0006083E889F98980818370806480839FBF0D
:1004E00081E090E0DF91CF911F910F91FF90EF900D
:1004F0000895F62E0B8D10E00F5F1F4F0F7311271D
:10050000E02E8C8D8E110CC00FB607FCFACFE88957
:10051000F989808185FFF5CFCE010E943002F1CFAD
:10052000EB8DEC0FFD2FF11DE35AFF4FF0829FB7CB
:10053000F8940B8FEA89FB8980818062CFCFCF93BB
:10054000DF93EC01888D8823B9F0AA89BB89E889FB
:10055000F9898C9185FD03C0808186FD0DC00FB6A1
:1005600007FCF7CF8C9185FFF2CF808185FFEDCF1F
:10057000CE010E943002E9CFDF91CF910895209102
:10058000B504260F3327331F21323105ECF42091B7
:10059000FE04FC0190E080E0243069F082E00895E0
:1005A000A091B5042191AC014B565B4FA40FB52F20
:1005B000B11D2C930196861798F38091B504680FAE
:1005C0006093B50480E0089581E008951092FE04E0
:1005D00081E08093FD041092D80461E082E10E94E2
:1005E000DE0061E083E10E94DE00E9EBF0E0808163
:1005F0008E7F808380818D7F808388E48093B800A4
:1006000085E48093BC000895CF93DF9391E09093AD
:1006100094048823B9F0C091B800D091BA008091B9
:10062000BC008A7B8093BC0060E082E10E94DE0017
:1006300060E083E10E94DE000E94E602D093BA00EF
:10064000C093B800DF91CF9108950895E0912D05F2
:1006500080912C05E81730F4F0E0EC58FB4F8081D6
:1006600090E008958FEF9FEF089590912D05809170
:100670002C052FEF3FEF981748F4E92FF0E0EC58E6
:10068000FB4F208130E09F5F90932D05C9010895B5
:1006900080912C0590912D05891B990B0895CF927F
:1006A000DF92EF92FF920F931F93CF93DF937C0122
:1006B000CB018A0120910405222389F0EB016B0113
:1006C000C40ED51ECC15DD0569F06991D701ED91F9
:1006D000FC910190F081E02DC7010995F3CF642FC3
:1006E0000E94BF02C801DF91CF911F910F91FF902F
:1006F000EF90DF90CF900895CF93DF931F92CDB707
:10070000DEB76983209104052223F9F020912A05A0
:10071000203258F021E030E0FC013383228390E066
:1007200080E00F90DF91CF91089580912B05E82F05
:10073000F0E0EB5FFA4F998190838F5F80932B05F8
:1007400080932A0581E090E0ECCF61E0CE01019634
:100750000E94BF02F7CFCF92DF92EF92FF920F93EA
:100760001F93CF93DF93FC01C48121E02093040504
:10077000C093250510922B0510922A058485682BBD
:100780008AED95E00E947C03D0912A05D13208F0D1
:1007900092C00E9452016B017C018091FE04811184
:1007A00065C082E08093FE0481E08093FD048FEFBA
:1007B0008093FC041092FB04D093FA04A5E0B5E00A
:1007C000EAEDF4E080E0D81385C01092D90480915E
:1007D000D904CC0FC82BC093D9048091D8048130A0
:1007E00009F07CC01092D8040E9452016B017C0178
:1007F0008091D9048093BB00809100059091010500
:10080000A0910205B0910305892B8A2B8B2B99F0BF
:100810000E945201009100051091010520910205EE
:10082000309103056C197D098E099F09061717077A
:1008300028073907E0F18091BC0083FDD9CF85EC12
:100840008093BC000E9452016B017C018091FE04E8
:10085000823009F445C08091FC048F3F61F18091A2
:10086000FC04803241F18091FC0425C08091000598
:1008700090910105A0910205B0910305892B8A2B67
:100880008B2B09F48ACF0E94520100910005109130
:10089000010520910205309103056C197D098E092F
:1008A0009F09061717072807390708F076CF8091A8
:1008B000FF040E94040310922B0510922A05109247
:1008C0000405DF91CF911F910F91FF90EF90DF9082
:1008D000CF9008959D9191938F5F75CF85EEB0CFA6
:1008E0008091000590910105A0910205B09103054A
:1008F000892B8A2B8B2B09F4A9CF0E9452010091DE
:1009000000051091010520910205309103056C1935
:100910007D098E099F09061717072807390708F070
:1009200095CFC5CF089590E080E00895CF93C82F6C
:1009300084E690E00E946811C81731F06C2F84E6BD
:1009400090E0CF910C947011CF9108950F931F9365
:10095000CF938C01C62F0E94AB036C2F6460C8013B
:100960000E94AB036C2F6B7FC8010E94AB0383EC2A
:1009700090E00197F1F7CF911F910F9108950F9398
:100980001F93CF93DF938C01D62FC42F607F642BEE
:100990000E94A60480E1D89FB00111246C2BC801ED
:1009A000DF91CF911F910F910C94A604CF93DF9309
:1009B000CDB7DEB728970FB6F894DEBF0FBECDBF18
:1009C00028E0E0E1F1E0DE01119601900D922A9518
:1009D000E1F7FC012085241710F44FEF420F50E09F
:1009E000440F551F21E030E02C0F3D1F420F531FD5
:1009F000FA012081620F606840E028960FB6F894F3
:100A0000DEBF0FBECDBFDF91CF910C94BF0440E09D
:100A100061E086EE95E00E94BF048BE39FE10197C1
:100A2000F1F78091EF05882331F040E060E086EE39
:100A300095E00C94D604089541E00E94BF0481E043
:100A400090E00895FB0101900020E9F73197AF0194
:100A5000461B570BDC01ED91FC910280F381E02DE8
:100A600009948F929F92AF92BF92EF92FF920F9351
:100A70001F93CF93DF93CDB7DEB7A1970FB6F8944E
:100A8000DEBF0FBECDBF7C01FA01CB0119A222301F
:100A900008F42AE08E010F5D1F4F822E912CB12C9D
:100AA000A12CBF01A50194010E94B011F901CA0156
:100AB0006A300CF5605DD8016E938D01232B242BD9
:100AC000252B79F790E080E0109721F0BD01C70158
:100AD0000E942205A1960FB6F894DEBF0FBECDBFCF
:100AE000DF91CF911F910F91FF90EF90BF90AF904A
:100AF0009F908F900895695CDECFCF93DF93C82FCE
:100B0000D62F462F682F86EE95E00E94D60468E423
:100B100071E08DE395E00E9422054D2F50E070E0DA
:100B200060E02AE08DE395E00E94310562E571E026
:100B30008DE395E00E9422054C2F50E070E060E0CC
:100B40002AE08DE395E00E94310564E571E08DE3D4
:100B500095E0DF91CF910C942205CF93DF93BC01F8
:100B60008DE395E00E942205EC0164E571E08DE3E0
:100B700095E00E9422058C0F9D1FDF91CF91089573
:100B8000CF93DF93EC0167E571E08DE395E00E9480
:100B90002205CE010E94AD05BE0186EE95E0DF91F3
:100BA000CF910C942205CF92DF92EF92FF92CF93D8
:100BB000DF936C01990FEE08FF08F7FE23C06DE28A
:100BC0008DE395E00E94AB01EC0144275527BA0163
:100BD0004C195D096E097F092AE08DE395E00E94BA
:100BE0003105C80FD91F64E571E08DE395E00E94DF
:100BF00022058C0F9D1FDF91CF91FF90EF90DF902A
:100C0000CF9008952AE0B701A6018DE395E00E94F8
:100C10003105EC01E8CFCF92DF92EF92FF92CF93B4
:100C2000DF936C0167E571E08DE395E00E9422059A
:100C3000C6010E94D3050D2C000CEE08FF08F7FE3C
:100C40001BC06DE286EE95E00E94AB01EC014427EB
:100C50005527BA014C195D096E097F092AE086EE15
:100C600095E00E9431058C0F9D1FDF91CF91FF9081
:100C7000EF90DF90CF9008952AE0B701A60186EEAD
:100C800095E0DF91CF91FF90EF90DF90CF900C94A3
:100C900031052F923F924F925F926F927F928F9287
:100CA0009F92AF92BF92CF92DF92EF92FF921F93EB
:100CB000CF93DF93EC016A017B01722EAB019601A9
:100CC000CB01B6010E94181462E671E0811126C0C2
:100CD00046015701E894B7F82FEF3FEF4FE75FE782
:100CE000C501B4010E94181481110CC02FEF3FEF11
:100CF0004FE75FE7C501B4010E944E1266E671E05E
:100D0000181664F02FEF3FEF4FE75FE4C701B6011D
:100D10000E94A6131816B4F46AE671E0CE01DF91C2
:100D2000CF911F91FF90EF90DF90CF90BF90AF9049
:100D30009F908F907F906F905F904F903F902F90FB
:100D40000C9422052FEF3FEF4FE75FECC701B60190
:100D50000E944E1287FDE0CF20E030E0A901C701DC
:100D6000B6010E944E12312C212C87FF09C06DE282
:100D7000CE010E94AB011C01F7FAF094F7F8F09451
:100D800010E060E070E080E09FE3711641F020E049
:100D900030E040E251E40E9453121F5FF6CFA701FA
:100DA00096010E94E2112B013C010E94C5124B01E9
:100DB0005C012AE0BC01A401CE010E9431057C0146
:100DC000E20CF31C1123C1F1C501B4010E94F4121D
:100DD0009B01AC01C301B2010E94E1114B015C0116
:100DE0006EE2CE010E94AB01E80EF91E115020F117
:100DF00020E030E040E251E4C501B4010E94AB13B1
:100E00002B013C010E94C5124B01B12CA12C2AE000
:100E1000B501A401CE010E943105E80EF91EC501FD
:100E2000B4010E94F4129B01AC01C301B2010E9403
:100E3000E1114B015C01DACFC701DF91CF911F9126
:100E4000FF90EF90DF90CF90BF90AF909F908F90EA
:100E50007F906F905F904F903F902F900895CF922A
:100E6000DF92EF92FF92CF936B017C01C42F67E575
:100E700071E08DE395E00E9422052C2FB701A601B9
:100E80008DE395E00E94490664E571E08DE395E00D
:100E90000E9422052C2FB701A60186EE95E0CF9186
:100EA000FF90EF90DF90CF900C94490685ED8093F2
:100EB000BC008091000590910105A0910205B091C0
:100EC00003050796A11DB11D23E0B695A79597953B
:100ED00087952A95D1F72091BC0024FD03C010927C
:100EE000FE040895409100055091010560910205AE
:100EF00070910305452B462B472B69F30097A105FD
:100F0000B10541F02AE22A95F1F700C00197A10945
:100F1000B109E1CF8091FF040C940403CF93DF93D8
:100F200000D000D000D0CDB7DEB788E0382E0BE37C
:100F300010E020E030E040E450E4609170047091F3
:100F4000710480917204909173040E94A61387FD2E
:100F50005BC060E08BE00E94DE0060E08AE00E94FF
:100F6000DE000E94070560E080E00E947D058EE6BD
:100F700091E00E94C00562E080E00E947D0582E869
:100F800091E00E94C00524E130E03A832983309249
:100F9000F20560E086EE95E00E94AB036AEF70E038
:100FA00080E090E00E9477011092F20560E086EE0A
:100FB00095E00E94AB036AEF70E080E090E00E9451
:100FC000770161E089E00E94DE0068EC70E080E07B
:100FD00090E00E94770160E089E00E94DE0064E614
:100FE00070E080E090E00E94770189819A8101970A
:100FF0009A838983892B59F668EE73E080E090E04C
:101000000E9477010C94000086E00E94B500892BB5
:1010100009F03FC061E089E00E94DE0060E971E014
:1010200080E090E00E94770160E089E00E94DE00AD
:1010300060E08BE00E94DE0060E080E00E947D05C1
:1010400083E991E00E94C00561E080E00E947D0597
:1010500087EA91E00E94C00562E080E00E947D0581
:101060008BEB91E00E94C00563E080E00E947D056B
:1010700087EA91E00E94C00561E084E00E94DE0002
:1010800084E00E94B500892BB9F70E9407050E94F1
:101090008E0785E00E94B500892B09F04AC00E94A6
:1010A000070561E080E00E947D058FEC91E00E94E1
:1010B000C00562E080E00E947D0589EA91E00E941F
:1010C000C00561E089E00E94DE0064E873E080E032
:1010D00090E00E94770160E089E00E94DE0060E914
:1010E00071E080E090E00E94770161E089E00E9479
:1010F000DE0064E873E080E090E00E94770160E049
:1011000089E00E94DE0060E971E080E090E00E94EA
:10111000770160E08BE00E94DE0060E08AE00E94E0
:10112000DE0068EE73E080E090E00E9477010C94AE
:10113000000060E080E00E947D0583EE91E00E9467
:10114000C00561E08EE00E947D0587EF91E00E947E
:10115000C00561E08AE00E947D0589EF91E00E9470
:10116000C00561E081E10E947D058CEF91E00E9465
:10117000C0058AE00E94B50061E0892B09F0DAC25F
:1011800081E00E947D058FEF91E00E94C0058FB73E
:10119000F89440913505509136056091370570916E
:1011A00038058FBF80916C0490916D04A0916E04FE
:1011B000B0916F046A017B01C81AD90AEA0AFB0AD6
:1011C000D701C6018E399340A105B10588F0809101
:1011D0006A0490916B04019790936B0480936A0466
:1011E00040936C0450936D0460936E0470936F048D
:1011F00080916A0490916B0497FF0DC08091300537
:1012000090913105019790933105809330051093AB
:101210006B0400936A04809130059091310561E080
:101220000A970CF48DC28CE00E947D0580913005F8
:10123000909131050E940B0680916A0490916B0495
:1012400061E00A970CF496C28FE00E947D058091C0
:101250006A0490916B040E940B0680913205909174
:101260003305C0903005D0903105DA82C9828E3DB9
:10127000910509F089C296012E313105E9F480917A
:101280006A0490916B04892B09F049C061E089E000
:101290000E94DE0064E873E080E090E00E94770145
:1012A00060E089E00E94DE0061E08BE00E94DE00E9
:1012B00061E08AE00E94DE00C980DA80CD2879F5FD
:1012C00080916A0490916B04892B49F524E030E009
:1012D0003A83298361E089E00E94DE0064E873E0DC
:1012E00080E090E00E94770160E089E00E94DE00EB
:1012F00060E971E080E090E00E94770189819A8145
:1013000001979A838983892B29F760E08BE00E94FB
:10131000DE0060E08AE00E94DE000C9400008EE0B7
:101320000E943D01BC01990F880B990B0E94F61297
:1013300023EC35EF40EA50E40E94AB1320E030E0AC
:1013400040E85AE30E94AB132CE83EE24AEB5DE32F
:101350000E94531260936204709363048093640448
:101360009093650462E080E00E947D0583E192E055
:101370000E94C00562E086E00E947D0560916204E3
:1013800070916304809164049091650441E050E0A1
:101390000E942F0720E030E040E251E460916204B7
:1013A0007091630480916404909165040E94A61377
:1013B00062E018160CF0F2C186E00E947D05609193
:1013C000620470916304809164049091650441E02B
:1013D00050E00E942F078FE00E943D01BC01990F51
:1013E000880B990B0E94F61220E030E040E85AE3A7
:1013F0000E94AB1320E030E44CE955E40E94AB13AB
:1014000020E030E44CE155E40E94E11120E030E0BE
:1014100048EC52E40E9453122B013C0140927004AC
:1014200050927104609272047092730427E73CEC4E
:101430004BE252E360910001709101018091020141
:10144000909103010E94E2116B017C0128EC36E3CC
:101450004CE357E30E94E2119B01AC01C701B601C6
:101460000E9453124B015C01AC019B0160E070E0F3
:1014700080E89FE30E94E111A70196010E94AB134F
:101480006093000170930101809302019093030126
:10149000C0905E04D0905F04E0906004F09061041E
:1014A000A7019601C301B2010E94E111A5019401B7
:1014B0000E94AB13A70196010E94E21160935E04A3
:1014C00070935F04809360049093610463E080E014
:1014D0000E947D0589E192E00E94C00563E086E0FC
:1014E0000E947D0560915E0470915F0480916004AC
:1014F0009091610442E050E00E942F0763E08AE08F
:101500000E947D0589EB91E00E94C00561E08BE0BF
:101510000E940C0161E08BE00E94DE0080E10E94ED
:101520003D019E838D830E9410116B017C0180918F
:10153000F7059091F805A091F905B091FA05898316
:101540009A83AB83BC832091F3053091F4054091DD
:10155000F5055091F605BC01CD010E94E2119B01F9
:10156000AC0169817A818B819C810E9453124B016D
:101570005C018092070690920806A0920906B0923C
:101580000A0640900306509004066090050670908D
:101590000606C701B60128EC30E040E050E00E94AA
:1015A0007E1164567109810991090E94F61220E0AA
:1015B00030E048EC52E40E9453126B017C01AD8193
:1015C000BE81BD01BB0F880B990B0E94F61220E073
:1015D00030E040EA5BE30E94AB1320E030E048ECEF
:1015E00052E40E94AB139B01AC01C701B6010E94FB
:1015F000E211A30192010E94E111A50194010E9450
:10160000AB13A30192010E94E2116B017C01C09215
:10161000FF05D0920006E0920106F0920206AC01AE
:101620009B01C301B2010E94E1119F772091FB054C
:101630003091FC054091FD055091FE050E94AB13D1
:101640002B013C01A501940160E070E080E89FE37C
:101650000E94E11129813A814B815C810E94AB1388
:101660009B01AC01C301B2010E94E2116093F70536
:101670007093F8058093F9059093FA05C0920306DC
:10168000D0920406E0920506F09206062FB7F89471
:101690008091350590913605A0913705B0913805B8
:1016A0002FBF409166045091670460916804709167
:1016B0006904481759076A077B0708F03ACC62E0CB
:1016C0008DE00E947D058FE192E00E94C00563E0FD
:1016D0008CE00E947D0541E050E0C701B6010E9408
:1016E0002F0763E080E10E947D0560E086EE95E0D3
:1016F0000E941C0563E081E10E947D0584E292E086
:101700000E94C0052FB7F894809135059091360559
:10171000A0913705B09138052FBF8C599F4FAF4F1F
:10172000BF4F8093660490936704A0936804B093BE
:101730006904FFCB81E00E947D0588E092E025CD21
:101740008CE00E947D0581E192E00E94C00561E08D
:101750008DE00E947D0580913005909131050E94B9
:101760000B0661E08EE00E947D0587EF91E00E940C
:10177000C00562CD8FE00E947D0581E192E00E946C
:10178000C00561E080E161CD8F36910509F094CD0F
:1017900089819A810F9709F08FCD71CD86E00E94E3
:1017A0007D0581E192E00E94C00562E087E00E9431
:1017B0007D0560916204709163048091640490914E
:1017C000650442E050E005CE1F920F920FB60F92D3
:1017D00011242F933F938F939F93AF93BF93809147
:1017E000350590913605A0913705B09138053091B7
:1017F000340523E0230F2D3758F50196A11DB11DA7
:10180000209334058093350590933605A0933705D2
:10181000B09338058091390590913A05A0913B0528
:10182000B0913C050196A11DB11D8093390590939F
:101830003A05A0933B05B0933C05BF91AF919F91B2
:101840008F913F912F910F900FBE0F901F90189581
:1018500026E8230F0296A11DB11DD2CF1F920F9231
:101860000FB60F9211242F933F934F935F936F9373
:101870007F938F939F93AF93BF93EF93FF938DE3EA
:1018800095E00E943002FF91EF91BF91AF919F913F
:101890008F917F916F915F914F913F912F910F9019
:1018A0000FBE0F901F9018951F920F920FB60F92B8
:1018B00011242F938F939F93EF93FF93E0914D0506
:1018C000F0914E058081E0915305F091540582FD21
:1018D0001BC09081809156058F5F8F7320915705B3
:1018E000821741F0E0915605F0E0E35CFA4F958FE6
:1018F00080935605FF91EF919F918F912F910F90BB
:101900000FBE0F901F9018958081F4CF1F920F92F9
:101910000FB60F9211242F933F934F935F936F93C2
:101920007F938F939F93AF93BF93EF93FF93809198
:10193000B900887F803609F44AC0F0F5883209F48E
:10194000A7C018F5803109F49BC0B8F4882309F4C6
:10195000F9C0883009F494C0FF91EF91BF91AF9125
:101960009F918F917F916F915F914F913F912F91B7
:101970000F900FBE0F901F901895883109F488C002
:10198000803251F78093FC0414C0803409F49DC068
:1019900040F48033B9F38833F9F68093FC0485EC86
:1019A000B0C0803509F485C0883509F496C0883404
:1019B00099F60E945607D0CF883909F48CC038F5C3
:1019C000883729F050F4883611F0803729F683E003
:1019D0008093FE041092D70457C0883809F47BC066
:1019E000803919F0803809F0B7CF8091D704803260
:1019F00008F071C0E091D70481E08E0F8093D70486
:101A00008091BB00F0E0E954FB4F80833DC0803BF8
:101A100039F0E0F4803A09F479C0883A09F09CCFB3
:101A200084E08093FE041092B6041092B504E09115
:101A30002805F091290509958091B50481110FC001
:101A400081E08093B5041092950409C0803C09F4AC
:101A5000A6CF883C09F4A3CF883B09F07DCFE09165
:101A6000B60481E08E0F8093B604F0E0EB56FB4F96
:101A700080818093BB009091B6048091B50429C009
:101A80008091D9048093BB0085EC8093BC0064CF27
:101A90009091FB048091FA04981758F5E091FB04AB
:101AA00081E08E0F8093FB04F0E0E652FB4F8081D3
:101AB000E9CFE091FB0481E08E0F8093FB048091DD
:101AC000BB00F0E0E652FB4F80839091FB048091D5
:101AD000FA049817C8F285E8D8CFE091FB0481E0BA
:101AE0008E0F8093FB048091BB00F0E0E652FB4F29
:101AF00080838091FD0481115CCF81E08093D804C4
:101B000084EA8093BC001092FE0426CF85EC80937B
:101B1000BC001092FE048091D704803230F4E09132
:101B2000D704F0E0E954FB4F10826091D70470E0D5
:101B3000E0912605F091270587EB94E00995109236
:101B4000D7040ACF1092FC0434CF84E690E00E94C0
:101B5000681190E090932F0580932E058E3F91059C
:101B60008CF186E292E00E94AD056CE372E08DE3B9
:101B700095E00E94220580912E0590912F050E94EC
:101B8000D30560E080E00E947D058EE492E00E9433
:101B9000C00561E080E00E947D0582E692E00E943F
:101BA000C00562E080E00E947D0586E792E00E9429
:101BB000C00563E080E00E947D058AE892E00E9413
:101BC000C005CFCF83E00E94B500892B91F580E05E
:101BD0000E94B500019749F584E690E00E946811E3
:101BE00080932E0585E690E00E94681180932F0572
:101BF00080912E058F5F0E94960484E690E00E94FB
:101C00006811282F30E030932F0520932E050E9475
:101C100096046EE972E08DE395E00E9422058091C2
:101C20002E0590912F050E94D3050E9407050E9462
:101C30008E070895EDE3F5E01382128288EE93E0BB
:101C4000A0E0B0E084839583A683B7832CE131E0E4
:101C50003183208325EC30E03587248724EC30E085
:101C60003787268720EC30E0318B208B21EC30E069
:101C7000338B228B22EC30E0358B248B26EC30E04A
:101C8000378B268B118E128E138E148EEAEDF5E0B3
:101C90001382128284839583A683B7838EE291E0B8
:101CA00091838083E3EFF5E0148615861686178608
:101CB000108A118A128A138A148A158A168A178A38
:101CC00080E090E0A0E0B0E480839183A283B383BE
:101CD00084839583A683B7838AE097EDA3E2BCE370
:101CE00080879187A287B387E6EEF5E013821282A0
:101CF000118687E2848384E1828784E08387148667
:101D000080E491E0918380830895789484B5826023
:101D100084BD84B5816084BD85B5826085BD85B58F
:101D2000816085BD80916E00816080936E0010920D
:101D30008100809181008260809381008091810088
:101D40008160809381008091800081608093800019
:101D50008091B10084608093B1008091B000816077
:101D60008093B00080917A00846080937A008091A3
:101D70007A00826080937A0080917A0081608093FB
:101D80007A0080917A00806880937A001092C10076
:101D900010922D0510922C0510922B0510922A05F9
:101DA0000E94E60289EA91E0909329058093280534
:101DB0008AEA91E090932705809326051092EB051F
:101DC0008091F105823018F098E09093EB058093B4
:101DD000EE0562E370E080E090E00E9477016091A0
:101DE000F20586EE95E00E94AB0368EE73E080E0BA
:101DF00090E00E94770160E386EE95E00E94A604E1
:101E0000CBE4D6E4CE010197F1F760E386EE95E0EE
:101E10000E94A6042197F1F760E386EE95E00E9408
:101E2000A60483E592E00197F1F760E286EE95E083
:101E30000E94A6046091EB05606240E086EE95E0AA
:101E40000E94BF0484E08093EC0540E06CE086EEE5
:101E500095E00E94BF040E94070582E08093ED0593
:101E600040E066E086EE95E00E94BF0440E062E05C
:101E700086EE95E00E94BF048BE39FE10197F1F7A6
:101E800088E08093F20560E086EE95E00E94AB0367
:101E900040E060E486EE95E00E94BF04C4E0D1E03B
:101EA000699186EE95E00E941C0581E0CC30D80750
:101EB000B9F70E940705E0914D05F0914E0582E0CB
:101EC0008083E0914D05F0914E051082E091490527
:101ED000F0914A051082E0914B05F0914C0580E1AC
:101EE000808310925505E0915105F091520586E0EE
:101EF0008083E0914F05F09150058081806180835F
:101F0000E0914F05F0915005808188608083E091D9
:101F10004F05F0915005808180688083E0914F05E6
:101F2000F091500580818F7D808362E084E00E9483
:101F30000C0162E083E00E940C0162E082E00E94FA
:101F40000C0162E087E00E940C0162E086E00E94E2
:101F50000C0162E085E00E940C0161E08BE00E94D0
:101F60000C0161E08AE00E940C0161E089E00E94BE
:101F70000C0187EB92E00E94AD0585EE92E00E9495
:101F8000AD0584E093E00E94AD0583E293E00E94FA
:101F9000AD058BE493E00E94AD0584E690E00E94DD
:101FA000681190E090932F0580932E0565E673E00D
:101FB0008DE395E00E94220580912E0590912F05DA
:101FC0000E94D305C0E0D0E086E00E94B500892BD6
:101FD00041F487E00E94B500892B19F480E00E944B
:101FE000960460E080E00E947D058EE793E00E9409
:101FF000C00563E080E00E947D0580E993E00E94D7
:10200000C00561E080E00E947D0583EA93E00E94C4
:10201000C00584E00E94B500892B09F0AAC060E0E9
:1020200080E00E947D0586EB93E00E94C00561E0A0
:1020300080E00E947D058BEC93E00E94C00562E089
:1020400080E00E947D0580EE93E00E94C00563E081
:1020500080E00E947D0585EF93E00E94C005CFE6F9
:10206000D0E00EE110E08EEDE82EF12C9CE3C92EBD
:10207000D12C82E00E94B500892B91F5D0933305D5
:10208000C0933205109331050093300560E080E085
:102090000E947D058AE094E00E94C00561E085E031
:1020A0000E947D0580913005909131050E940B06BC
:1020B00061E087E00E947D058FE194E00E94C00509
:1020C00062E080E00E947D0584E394E00E94C00508
:1020D00063E080E00E947D0589E494E00E94C005F1
:1020E00080913005909131054E9711F40E94A50D15
:1020F00087E00E94B500892B91F5F0923305E092BC
:102100003205D0923105C092300560E080E00E9437
:102110007D058AE094E00E94C00561E085E00E94B0
:102120007D0580913005909131050E940B0661E09C
:1021300087E00E947D058FE194E00E94C00562E087
:1021400080E00E947D0584E394E00E94C00563E086
:1021500080E00E947D0589E494E00E94C0058091A2
:10216000300590913105CC9709F083CF0E94A50DE1
:1021700080CF209709F428CF0E941C02882309F4FD
:1021800023CF0E94000020CF8F929F92AF92BF92E8
:10219000CF92DF92EF92FF92CF93DF93EC016881B1
:1021A00079818A819B81611571058105910521F4F1
:1021B00064E279ED8BE597E02DE133EF41E050E00B
:1021C0000E947E1149015A019B01AC01A7EAB1E4CA
:1021D0000E949D116B017C01ACEEB4EFA50194014E
:1021E0000E94AB11C60ED71EE81EF91EF7FE06C0F0
:1021F00081E0C81AD108E10880E8F80AC882D982CB
:10220000EA82FB82C701B6019F77DF91CF91FF90F1
:10221000EF90DF90CF90BF90AF909F908F900895F8
:102220008F929F92AF92BF92CF92DF92EF92FF92E6
:1022300060910C0170910D0180910E0190910F0140
:10224000611571058105910521F464E279ED8BE555
:1022500097E02DE133EF41E050E00E947E1149010B
:102260005A019B01AC01A7EAB1E40E949D116B01E8
:102270007C01ACEEB4EFA50194010E94AB11C60E37
:10228000D71EE81EF91EF7FE06C081E0C81AD10865
:10229000E10880E8F80AC0920C01D0920D01E092AA
:1022A0000E01F0920F01C701B6019F77FF90EF90EA
:1022B000DF90CF90BF90AF909F908F9008956093E4
:1022C0000C0170930D0180930E0190930F010895FE
:1022D000F999FECF92BD81BDF89A992780B50895EE
:1022E000262FF999FECF1FBA92BD81BD20BD0FB632
:1022F000F894FA9AF99A0FBE01960895052E97FB65
:102300001EF400940E94951157FD07D00E94B01151
:1023100007FC03D04EF40C949511509540953095E0
:1023200021953F4F4F4F5F4F089590958095709541
:1023300061957F4F8F4F9F4F08950E94D211A59FA7
:10234000900DB49F900DA49F800D911D11240895B0
:10235000B7FF0C949D110E949D11821B930B089551
:10236000A1E21A2EAA1BBB1BFD010DC0AA1FBB1F99
:10237000EE1FFF1FA217B307E407F50720F0A21B0B
:10238000B30BE40BF50B661F771F881F991F1A9478
:1023900069F760957095809590959B01AC01BD01A2
:1023A000CF010895A29FB001B39FC001A39F700DFC
:1023B000811D1124911DB29F700D811D1124911D4D
:1023C00008955058BB27AA270E94F9110C946C134A
:1023D0000E945E1338F00E94651320F039F49F3F8D
:1023E00019F426F40C945B130EF4E095E7FB0C94BF
:1023F0005513E92F0E947D1358F3BA17620773072C
:102400008407950720F079F4A6F50C949F130EF439
:10241000E0950B2EBA2FA02D0B01B90190010C01F4
:10242000CA01A0011124FF27591B99F0593F50F40C
:10243000503E68F11A16F040A22F232F342F442764
:10244000585FF3CF469537952795A795F04053955C
:10245000C9F77EF41F16BA0B620B730B840BBAF02C
:102460009150A1F0FF0FBB1F661F771F881FC2F797
:102470000EC0BA0F621F731F841F48F487957795AB
:102480006795B795F7959E3F08F0B0CF9395880F65
:1024900008F09927EE0F9795879508950E943113BC
:1024A00008F481E008950E9467120C946C130E9456
:1024B000651358F00E945E1340F029F45F3F29F045
:1024C0000C94551351110C94A0130C945B130E949F
:1024D0007D1368F39923B1F3552391F3951B550BA5
:1024E000BB27AA2762177307840738F09F5F5F4FE7
:1024F000220F331F441FAA1FA9F335D00E2E3AF026
:10250000E0E832D091505040E695001CCAF72BD03D
:10251000FE2F29D0660F771F881FBB1F261737078E
:102520004807AB07B0E809F0BB0B802DBF01FF27C0
:1025300093585F4F3AF09E3F510578F00C94551335
:102540000C94A0135F3FE4F3983ED4F386957795FF
:102550006795B795F7959F5FC9F7880F911D969579
:10256000879597F90895E1E0660F771F881FBB1FD5
:10257000621773078407BA0720F0621B730B840B82
:10258000BA0BEE1F88F7E09508950E94851388F036
:102590009F5798F0B92F9927B751B0F0E1F0660F27
:1025A000771F881F991F1AF0BA95C9F714C0B13068
:1025B00091F00E949F13B1E008950C949F13672F30
:1025C000782F8827B85F39F0B93FCCF38695779597
:1025D0006795B395D9F73EF4909580957095619580
:1025E0007F4F8F4F9F4F0895E89409C097FB3EF4AB
:1025F00090958095709561957F4F8F4F9F4F992350
:10260000A9F0F92F96E9BB279395F69587957795CD
:102610006795B795F111F8CFFAF4BB0F11F460FF8D
:102620001BC06F5F7F4F8F4F9F4F16C0882311F0E5
:1026300096E911C0772321F09EE8872F762F05C0F9
:10264000662371F096E8862F70E060E02AF09A9594
:10265000660F771F881FDAF7880F9695879597F989
:102660000895990F0008550FAA0BE0E8FEEF161623
:102670001706E807F907C0F012161306E407F50776
:1026800098F0621B730B840B950B39F40A2661F0EA
:10269000232B242B252B21F408950A2609F4A1408D
:1026A000A6958FEF811D811D089597F99F6780E89A
:1026B00070E060E008959FEF80EC089500240A9494
:1026C0001616170618060906089500240A9412160D
:1026D0001306140605060895092E0394000C11F440
:1026E000882352F0BB0F40F4BF2B11F460FF04C0ED
:1026F0006F5F7F4F8F4F9F4F089557FD9058440F46
:10270000551F59F05F3F71F04795880F97FB991F50
:1027100061F09F3F79F0879508951216130614060D
:10272000551FF2CF4695F1DF08C01616170618069A
:10273000991FF1CF86957105610508940895E89475
:10274000BB2766277727CB0197F908950E9431139D
:1027500008F48FEF08950E94BE130C946C130E942E
:102760005E1338F00E94651320F0952311F00C944D
:1027700055130C945B1311240C94A0130E947D1329
:1027800070F3959FC1F3950F50E0551F629FF001C4
:10279000729FBB27F00DB11D639FAA27F00DB11DDD
:1027A000AA1F649F6627B00DA11D661F829F222766
:1027B000B00DA11D621F739FB00DA11D621F839FED
:1027C000A00D611D221F749F3327A00D611D231FC3
:1027D000849F600D211D822F762F6A2F11249F5711
:1027E00050409AF0F1F088234AF0EE0FFF1FBB1F14
:1027F000661F771F881F91505040A9F79E3F5105D3
:1028000080F00C9455130C94A0135F3FE4F3983EB2
:10281000D4F3869577956795B795F795E7959F5F7C
:10282000C1F7FE2B880F911D9695879597F908950E
:102830000E943113880B990B0895EE0FFF1F05902E
:0A284000F491E02D0994F894FFCF05
:10284A000000803F070507000000000001000000AB
:10285A000000400014005400000000005202B201BF
:10286A00DF019F021002EE010202000000007C0359
:10287A004F03930425034803350326030000000091
:10288A001C05B201930492044C43442C4355525301
:10289A004F522C000D0A004C43442C5052494E54BE
:1028AA002C006E616E00696E66006F7666002020ED
:1028BA00202A2A2A2A204572726F72202A2A2A2A54
:1028CA00200020202020204368616E672057617411
:1028DA006572002020202028506175736520546994
:1028EA006D65292020200020202020202020202063
:1028FA002020202020202020202000507265737381
:10290A00204F4B2028636F6E74696E75652900200D
:10291A0020202052455345542044455649434520DA
:10292A002020002020202854696D6520456C6170A4
:10293A00736564292020003A0028280029290050BC
:10294A004F532B20353025004E45472D2035302555
:10295A00003000566F75743D00416F75743D005428
:10296A00656D70004300202020285550444154458D
:10297A00204445564943452920202000636F756E3F
:10298A0074657220646576696365203D20002020A5
:10299A002855504441544520444556494345292029
:1029AA00200020202820504C454153452043414CCB
:1029BA004C2029202000287777772E656D7074685F
:1029CA0065726170792E6972290020202854484165
:1029DA004E4B5320464F5220594F55292000436FE2
:1029EA00756E7465722044657669636520576F72E7
:1029FA006B696E673D20003D3D204445564943457D
:102A0A00205445585420444154412C53484F572090
:102A1A004F4E2053455249414C204D4F4E49544F39
:102A2A0052203D3D00496F6E20436C65616E204F18
:102A3A006C642044657369676E20313338382F39E6
:102A4A002F323300496F6E20436C65616E204E65EC
:102A5A00772044657369676E20313430322F332F03
:102A6A003135005468652043726561746F7220269F
:102A7A002044657369676E6572206279204B616DC7
:102A8A0062697A204B65726163680050686F6E658F
:102A9A00204E756D6265723A2030393132313230EA
:102AAA003133373200436F756E7465722044657630
:102ABA0069636520576F726B6564203D2000202092
:102ACA00496F6E20436C65616E204865616C6500D4
:102ADA00205072657373204F6B20546F20536574B6
:102AEA00757000207777772E656D707468657261EE
:102AFA0070792E697200202020202050726573732D
:102B0A00204B6579202B2020202000202020202007
:102B1A00283630204D696E757465292020202000E2
:102B2A0020202020205072657373204B6579202D58
:102B3A0020202020002020202020283330204D690A
:102B4A006E757465292020202000202020285468D2
:102B5A0065726170792054696D65292020200020F2
:102B6A00204D696E757465202020202020202020A9
:102B7A002020200020504F532B2035302520204E76
:102B8A0045472D203530252000202050726573736B
:0E2B9A00205374617274204B65792020200056
:00000001FF
