:100000000C9462000C948A000C948A000C948A0070
:100010000C948A000C948A000C948A000C948A0038
:100020000C948A000C948A000C948A000C948A0028
:100030000C948A000C948A000C948A000C948A0018
:100040000C947C0B0C948A000C94EC0B0C94C60B57
:100050000C948A000C948A000C948A000C948A00F8
:100060000C941E0C0C948A00000000002400270051
:100070002A0000000000250028002B0000000000DE
:1000800023002600290004040404040404040202DA
:100090000202020203030303030301020408102007
:1000A0004080010204081020010204081020000012
:1000B0000008000201000003040700000000000027
:1000C0000000BA0D11241FBECFEFD8E0DEBFCDBFB8
:1000D00014E0A0E0B1E0EEECF7E202C005900D9272
:1000E000A834B107D9F725E0A8E4B4E001C01D9217
:1000F000A53FB207E1F710E0C2E6D0E004C02197C7
:10010000FE010E94DF13C136D107C9F70E94250EF8
:100110000C94E5130C940000833081F028F48130B6
:1001200099F08230A9F008958730A9F08830C9F09D
:100130008430B1F4809180008F7D03C08091800075
:100140008F7780938000089584B58F7784BD08955C
:1001500084B58F7DFBCF8091B0008F778093B00006
:1001600008958091B0008F7DF9CFCF93DF93282F32
:1001700030E0F901E255FF4F8491F901E656FF4F57
:10018000D491F901EA57FF4FC491CC23A1F081111A
:100190000E948C00EC2FF0E0EE0FFF1FE458FF4FA1
:1001A000A591B491EC91ED2381E090E009F480E019
:1001B000DF91CF91089580E090E0FACF1F93CF9325
:1001C000DF93282F30E0F901E255FF4F8491F901C8
:1001D000E656FF4FD491F901EA57FF4FC491CC2363
:1001E000A9F0162F81110E948C00EC2FF0E0EE0F89
:1001F000FF1FEE58FF4FA591B4918FB7F894EC9183
:10020000111108C0D095DE23DC938FBFDF91CF9111
:100210001F910895DE2BF8CFCF93DF9390E0FC0180
:10022000E656FF4F24918A579F4FFC018491882303
:10023000D1F090E0880F991FFC01E859FF4FA5917C
:10024000B491FC01EE58FF4FC591D491623071F426
:100250009FB7F8943C91822F809583238C93E881FB
:100260002E2B28839FBFDF91CF9108958FB7F894ED
:10027000EC912E2B2C938FBFF6CF8E3008F08E5042
:100280008770806480937C0080917A008064809382
:100290007A0080917A0086FDFCCF80917800909161
:1002A000790008953FB7F894809123059091240533
:1002B000A0912505B091260526B5A89B05C02F3F26
:1002C00019F00196A11DB11D3FBFBA2FA92F982F7C
:1002D0008827BC01CD01620F711D811D911D42E077
:1002E000660F771F881F991F4A95D1F708958F923F
:1002F0009F92AF92BF92CF92DF92EF92FF924B010B
:100300005C010E9452016B017C010E9452016C1938
:100310007D098E099F09683E734081059105A8F308
:1003200021E0821A9108A108B10888EEC80E83E086
:10033000D81EE11CF11C81149104A104B10429F719
:10034000FF90EF90DF90CF90BF90AF909F908F90F5
:10035000089508950895AF92BF92CF92DF92EF92E1
:10036000FF920F931F93CF93DF936C017B018B015F
:10037000040F151FEB015E01AE18BF08C017D107AF
:1003800059F06991D601ED91FC910190F081E02D39
:10039000C6010995892B79F7C501DF91CF911F918E
:1003A0000F91FF90EF90DF90CF90BF90AF900895A6
:1003B000FC01538D448D252F30E0842F90E0821B6B
:1003C000930B541710F0CF96089501970895FC01F0
:1003D000918D828D981761F0A28DAE0FBF2FB11D48
:1003E0005D968C91928D9F5F9F73928F90E00895A0
:1003F0008FEF9FEF0895FC01918D828D981731F05A
:10040000828DE80FF11D858D90E008958FEF9FEFAD
:100410000895FC01918D228D892F90E0805C9F4F83
:10042000821B91098F739927089587E295E00E94B6
:10043000090221E0892B09F420E0822F089580E051
:1004400090E0892B29F00E94150281110C94000084
:100450000895FC01A48DA80FB92FB11DA35ABF4F59
:100460002C91848D90E001968F739927848FA689B3
:10047000B7892C93A089B1898C91837080648C9307
:10048000938D848D981306C00288F389E02D8081B6
:100490008F7D80830895EF92FF920F931F93CF93E8
:1004A000DF93EC0181E0888F9B8D8C8D98131AC0AF
:1004B000E889F989808185FF15C09FB7F894EE8996
:1004C000FF896083E889F9898081837080648083F3
:1004D0009FBF81E090E0DF91CF911F910F91FF903E
:1004E000EF900895F62E0B8D10E00F5F1F4F0F73E6
:1004F0001127E02E8C8D8E110CC00FB607FCFACFA1
:10050000E889F989808185FFF5CFCE010E94290213
:10051000F1CFEB8DEC0FFD2FF11DE35AFF4FF08271
:100520009FB7F8940B8FEA89FB8980818062CFCFD7
:10053000CF93DF93EC01888D8823B9F0AA89BB891A
:10054000E889F9898C9185FD03C0808186FD0DC005
:100550000FB607FCF7CF8C9185FFF2CF808185FF26
:10056000EDCFCE010E942902E9CFDF91CF9108950E
:10057000089520919F04260F3327331F2132310520
:10058000ECF42091E804FC0190E080E0243069F074
:1005900082E00895A0919F042191AC0141585B4FE6
:1005A000A40FB52FB11D2C930196861798F3809157
:1005B0009F04680F60939F0480E0089581E0089590
:1005C0001092E80481E08093E7041092C20461E095
:1005D00082E10E94DE0061E083E10E94DE00E9EB3F
:1005E000F0E080818E7F808380818D7F808388E4AE
:1005F0008093B80085E48093BC000895CF93DF9387
:1006000091E090937E048823B9F0C091B800D09116
:10061000BA008091BC008A7B8093BC0060E082E1DC
:100620000E94DE0060E083E10E94DE000E94E002A2
:10063000D093BA00C093B800DF91CF910895089588
:10064000E091170580911605E81730F4F0E0E25AC2
:10065000FB4F808190E008958FEF9FEF0895909178
:100660001705809116052FEF3FEF981748F4E92FF3
:10067000F0E0E25AFB4F208130E09F5F9093170536
:10068000C90108958091160590911705891B990B52
:100690000895CF92DF92EF92FF920F931F93CF9323
:1006A000DF937C01CB018A012091EE04222389F0A3
:1006B000EB016B01C40ED51ECC15DD0569F0699107
:1006C000D701ED91FC910190F081E02DC7010995D2
:1006D000F3CF642F0E94B902C801DF91CF911F911F
:1006E0000F91FF90EF90DF90CF900895CF93DF931D
:1006F0001F92CDB7DEB769832091EE042223F9F073
:1007000020911405203258F021E030E0FC013383C1
:10071000228390E080E00F90DF91CF910895809147
:100720001505E82FF0E0E151FB4F998190838F5F31
:10073000809315058093140581E090E0ECCF61E093
:10074000CE0101960E94B902F7CFCF92DF92EF92CD
:10075000FF920F931F93CF93DF93FC01C48121E09D
:100760002093EE04C0930F05109215051092140506
:100770008485682B84EC95E00E947603D091140563
:10078000D13208F092C00E9452016B017C0180912D
:10079000E804811165C082E08093E80481E08093E1
:1007A000E7048FEF8093E6041092E504D093E4040D
:1007B000AFEEB4E0E4ECF4E080E0D81385C0109232
:1007C000C3048091C304CC0FC82BC093C304809191
:1007D000C204813009F07CC01092C2040E94520110
:1007E0006B017C018091C3048093BB008091EA047B
:1007F0009091EB04A091EC04B091ED04892B8A2B2D
:100800008B2B99F00E9452010091EA041091EB04A5
:100810002091EC043091ED046C197D098E099F093B
:100820000617170728073907E0F18091BC0083FD00
:10083000D9CF85EC8093BC000E9452016B017C01F2
:100840008091E804823009F445C08091E6048F3F2E
:1008500061F18091E604803241F18091E60425C087
:100860008091EA049091EB04A091EC04B091ED0426
:10087000892B8A2B8B2B09F48ACF0E94520100917D
:10088000EA041091EB042091EC043091ED046C1912
:100890007D098E099F09061717072807390708F0F1
:1008A00076CF8091E9040E94FE0210921505109205
:1008B00014051092EE04DF91CF911F910F91FF90DC
:1008C000EF90DF90CF9008959D9191938F5F75CFBA
:1008D00085EEB0CF8091EA049091EB04A091EC04F6
:1008E000B091ED04892B8A2B8B2B09F4A9CF0E94A0
:1008F00052010091EA041091EB042091EC04309134
:10090000ED046C197D098E099F0906171707280742
:10091000390708F095CFC5CF90E080E00895CF93D8
:10092000C82F84E690E00E942A11C81731F06C2F7E
:1009300084E690E0CF910C943211CF9108950F93FB
:100940001F93CF938C01C62F0E94A5036C2F646068
:10095000C8010E94A5036C2F6B7FC8010E94A503EC
:1009600083EC90E00197F1F7CF911F910F910895DB
:100970000F931F93CF93DF938C01D62FC42F607FEB
:10098000642B0E949F0480E1D89FB00111246C2B3E
:10099000C801DF91CF911F910F910C949F04CF93C9
:1009A000DF93CDB7DEB728970FB6F894DEBF0FBE42
:1009B000CDBF98E0E0E1F1E0DE01119601900D92EB
:1009C0009A95E1F79091D805961710F46FEF690F9B
:1009D000262F30E0220F331F41E050E04C0F5D1F07
:1009E000240F351FF9016081680F606840E080EDD9
:1009F00095E028960FB6F894DEBF0FBECDBFDF910D
:100A0000CF910C94B80440E061E080ED95E00E9445
:100A1000B8048BE39FE10197F1F78091D905882312
:100A200021F060E080E00C94CF04089541E00E9442
:100A3000B80481E090E00895FB0101900020E9F7FF
:100A40003197AF01461B570BDC01ED91FC91028001
:100A5000F381E02D09948F929F92AF92BF92EF9213
:100A6000FF920F931F93CF93DF93CDB7DEB7A1977C
:100A70000FB6F894DEBF0FBECDBF7C01FA01CB01EB
:100A800019A2223008F42AE08E010F5D1F4F822E3A
:100A9000912CB12CA12CBF01A50194010E947211CF
:100AA000F901CA016A300CF5605DD8016E938D01C1
:100AB000232B242B252B79F790E080E0109721F051
:100AC000BD01C7010E941C05A1960FB6F894DEBFB8
:100AD0000FBECDBFDF91CF911F910F91FF90EF908F
:100AE000BF90AF909F908F900895695CDECFCF92BA
:100AF000DF92EF92FF920F931F93CF93DF936B01DF
:100B0000770FEE08FF08F7FE1FC0EC01E881F981BE
:100B10000190F081E02D6DE209958C014427552765
:100B2000BA014C195D096E097F092AE0CE010E94C5
:100B30002B05800F911FDF91CF911F910F91FF9097
:100B4000EF90DF90CF9008952AE0B701A601DF91E2
:100B5000CF911F910F91FF90EF90DF90CF900C9469
:100B60002B05CF93DF93BC0187E295E00E947705C8
:100B7000EC0168E471E087E295E00E941C058C0FAF
:100B80009D1FDF91CF910895CF93DF93BC0187E242
:100B900095E00E941C05EC0168E471E087E295E0B5
:100BA0000E941C058C0F9D1FDF91CF9108954F92DD
:100BB0005F926F927F928F929F92AF92BF92CF92ED
:100BC000DF92EF92FF920F931F93CF936B017C0103
:100BD000742EAC019B010E94DA136BE471E0811169
:100BE00026C046015701E894B7F82FEF3FEF4FE7D3
:100BF0005FE7C501B4010E94DA1381110CC02FEF29
:100C00003FEF4FE75FE7C501B4010E9410126FE4A8
:100C100071E0181664F02FEF3FEF4FE75FE4C70174
:100C2000B6010E9468131816ACF463E571E080ED1C
:100C300095E0CF911F910F91FF90EF90DF90CF90B3
:100C4000BF90AF909F908F907F906F905F904F90EC
:100C50000C941C052FEF3FEF4FE75FECC701B60187
:100C60000E94101287FDE1CF20E030E0A901C7010A
:100C7000B6010E94101210E000E087FF0CC041E0B6
:100C80006DE280ED95E00E94B804F7FAF094F7F871
:100C9000F09401E010E0C0E060E070E080E09FE3ED
:100CA0007C1641F020E030E040E251E40E94151251
:100CB000CF5FF6CFA70196010E94A4114B015C0102
:100CC0000E9487122B013C012AE0BC01A20180EDA9
:100CD00095E00E942B05080F191FCC23D9F1C30101
:100CE000B2010E94B6129B01AC01C501B4010E9481
:100CF000A3114B015C0141E06EE280ED95E00E94A2
:100D0000B8040F5F1F4FC15028F120E030E040E2EF
:100D100051E4C501B4010E946D132B013C010E94F6
:100D200087124B01B12CA12C2AE0B501A40180ED62
:100D300095E00E942B05080F191FC501B4010E9400
:100D4000B6129B01AC01C301B2010E94A3114B0179
:100D50005C01D9CFC801CF911F910F91FF90EF9007
:100D6000DF90CF90BF90AF909F908F907F906F90CB
:100D70005F904F9008950C941C0585ED8093BC0006
:100D80008091EA049091EB04A091EC04B091ED0401
:100D90000796A11DB11D23E0B695A7959795879558
:100DA0002A95D1F72091BC0024FD03C01092E804DD
:100DB00008954091EA045091EB046091EC04709125
:100DC000ED04452B462B472B69F30097A105B10590
:100DD00041F02AE22A95F1F700C00197A109B10973
:100DE000E1CF8091E9040C94FE02CF93DF9300D011
:100DF00000D000D0CDB7DEB788E0382E0BE310E08E
:100E000020E030E040E450E460915A0470915B04CB
:100E100080915C0490915D040E94681387FD5FC01F
:100E200060E08BE00E94DE0060E08AE00E94DE006D
:100E30000E94030560E080E00E94CF0467E571E056
:100E400080ED95E00E94BB0662E080E00E94CF0446
:100E50006BE671E080ED95E00E94BB0624E130E096
:100E60003A8329833092DC0560E080ED95E00E94B2
:100E7000A5036AEF70E080E090E00E947701109295
:100E8000DC0560E080ED95E00E94A5036AEF70E06C
:100E900080E090E00E94770161E089E00E94DE003E
:100EA00068EC70E080E090E00E94770160E089E00B
:100EB0000E94DE0064E670E080E090E00E9477012E
:100EC00089819A8101979A838983892B59F668EEE3
:100ED00073E080E090E00E9477010C94000086E0CF
:100EE0000E94B500892B09F047C061E089E00E94AB
:100EF000DE0060E971E080E090E00E94770160E050
:100F000089E00E94DE0060E08BE00E94DE0060E08D
:100F100080E00E94CF046CE771E080ED95E00E94D4
:100F2000BB0661E080E00E94CF0460E971E080EDE3
:100F300095E00E94BB0662E080E00E94CF0464EA74
:100F400071E080ED95E00E94BB0663E080E00E94C6
:100F5000CF0460E971E080ED95E00E94BB0661E09E
:100F600084E00E94DE0084E00E94B500892BB9F77E
:100F70000E9403050E94F50685E00E94B500892BBA
:100F800009F04EC00E94030561E080E00E94CF049A
:100F900068EB71E080ED95E00E94BB0662E080E0C6
:100FA0000E94CF0462E971E080ED95E00E94BB06EB
:100FB00061E089E00E94DE0064E873E080E090E098
:100FC0000E94770160E089E00E94DE0060E971E044
:100FD00080E090E00E94770161E089E00E94DE00FD
:100FE00064E873E080E090E00E94770160E089E0CF
:100FF0000E94DE0060E971E080E090E00E947701ED
:1010000060E08BE00E94DE0060E08AE00E94DE008B
:1010100068EE73E080E090E00E9477010C9400009D
:1010200060E080E00E94CF046CEC71E080ED95E020
:101030000E94BB0661E08EE00E94CF0460EE71E08A
:1010400080ED95E00E94BB0661E08AE00E94CF043B
:1010500062EE71E080ED95E00E94BB0661E081E107
:101060000E94CF0465EE71E080ED95E00E94BB0622
:101070008AE00E94B50061E0892B09F0E6C281E0B8
:101080000E94CF0468EE71E080ED95E00E94BB06FF
:101090008FB7F89440911F0550912005609121056C
:1010A000709122058FBF8091560490915704A091B2
:1010B0005804B09159046A017B01C81AD90AEA0A96
:1010C000FB0AD701C6018E399340A105B10588F00E
:1010D0008091540490915504019790935504809306
:1010E00054044093560450935704609358047093EB
:1010F0005904809154049091550497FF0DC080913C
:101100001A0590911B05019790931B0580931A0572
:101110001093550400935404C0901A05D0901B05F9
:10112000DA82C982960161E08CE02A3031050CF444
:1011300092C20E94CF0469817A8180ED95E00E947D
:101140007705C0905404D0905504DA82C982960184
:1011500061E08FE02A3031050CF49CC20E94CF047C
:1011600069817A8180ED95E00E94770580911C0568
:1011700090911D05C0901A05D0901B05DA82C98296
:101180008E3D910509F097C296012E313105E9F4A3
:101190008091540490915504892B09F049C061E075
:1011A00089E00E94DE0064E873E080E090E00E9445
:1011B000770160E089E00E94DE0061E08BE00E9440
:1011C000DE0061E08AE00E94DE00C980DA80CD287E
:1011D00079F58091540490915504892B49F524E0C8
:1011E00030E03A83298361E089E00E94DE0064E810
:1011F00073E080E090E00E94770160E089E00E9467
:10120000DE0060E971E080E090E00E947701898172
:101210009A8101979A838983892B29F760E08BE073
:101220000E94DE0060E08AE00E94DE000C94000074
:101230008EE00E943D01BC01990F880B990B0E9422
:10124000B81223EC35EF40EA50E40E946D1320E021
:1012500030E040E85AE30E946D132CE83EE24AEB8E
:101260005DE30E94151260934C0470934D048093CB
:101270004E0490934F0462E080E00E94CF046CEF34
:1012800071E080ED95E00E94BB0662E086E00E947E
:10129000CF0460914C0470914D0480914E04909164
:1012A0004F0441E00E94D705C0904C04D0904D04FB
:1012B000E0904E04F0904F0420E030E040E251E432
:1012C000C701B6010E94681362E018160CF0FDC158
:1012D00086E00E94CF0441E0C701B6010E94D70515
:1012E0008FE00E943D01BC01990F880B990B0E9471
:1012F000B81220E030E040E85AE30E946D1320E08D
:1013000030E44CE955E40E946D1320E030E44CE1F8
:1013100055E40E94A31120E030E048EC52E40E9422
:1013200015122B013C0140925A0450925B046092CA
:101330005C0470925D0427E73CEC4BE252E3609161
:1013400000017091010180910201909103010E94BE
:10135000A4116B017C0128EC36E34CE357E30E94B7
:10136000A4119B01AC01C701B6010E9415124B01EB
:101370005C01AC019B0160E070E080E89FE30E94AB
:10138000A311A70196010E946D1360930001709351
:1013900001018093020190930301C0904804D09012
:1013A0004904E0904A04F0904B04A7019601C30160
:1013B000B2010E94A311A50194010E946D13A7011F
:1013C00096010E94A411609348047093490480938D
:1013D0004A0490934B0463E080E00E94CF0462E0F3
:1013E00072E080ED95E00E94BB0663E086E00E941B
:1013F000CF04609148047091490480914A0490910F
:101400004B0442E00E94D70563E08AE00E94CF04CB
:1014100062EA71E080ED95E00E94BB0661E08BE03E
:101420000E940C0161E08BE00E94DE0080E10E94DE
:101430003D019E838D830E94D2106B017C018091BF
:10144000E1059091E205A091E305B091E40589835F
:101450009A83AB83BC832091DD053091DE054091FA
:10146000DF055091E005BC01CD010E94A4119B0154
:10147000AC0169817A818B819C810E9415124B019C
:101480005C018092F1059092F205A092F305B09272
:10149000F4054090ED055090EE056090EF057090DA
:1014A000F005C701B60128EC30E040E050E00E94B2
:1014B000401164567109810991090E94B81220E017
:1014C00030E048EC52E40E9415126B017C01AD81C2
:1014D000BE81BD01BB0F880B990B0E94B81220E0A2
:1014E00030E040EA5BE30E946D1320E030E048EC1E
:1014F00052E40E946D139B01AC01C701B6010E942A
:10150000A411A30192010E94A311A50194010E94BC
:101510006D13A30192010E94A4116B017C01C09282
:10152000E905D092EA05E092EB05F092EC05AC01FA
:101530009B01C301B2010E94A3119F772091E50591
:101540003091E6054091E7055091E8050E946D1342
:101550002B013C01A501940160E070E080E89FE36D
:101560000E94A31129813A814B815C810E946D13F5
:101570009B01AC01C301B2010E94A4116093E1057B
:101580007093E2058093E3059093E405C092ED0526
:10159000D092EE05E092EF05F092F0052FB7F894A7
:1015A00080911F0590912005A0912105B091220501
:1015B0002FBF40915004509151046091520470919A
:1015C0005304481759076A077B0708F019CC62E0F3
:1015D0008DE00E94CF0468E072E080ED95E00E940B
:1015E000BB0663E08CE00E94CF0441E0C701B60176
:1015F0000E94D70563E080E10E94CF0460E080EDA7
:1016000095E00E94160563E081E10E94CF046DE041
:1016100072E080ED95E00E94BB062FB7F8948091B0
:101620001F0590912005A0912105B09122052FBFA3
:101630008C599F4FAF4FBF4F8093500490935104EC
:10164000A0935204B0935304DBCB81E00E94CF04FB
:1016500061EF71E019CD0E94CF046AEF71E080ED77
:1016600095E00E94BB0661E08DE00E94CF0460918E
:101670001A0570911B0580ED95E00E94770561E0E9
:101680008EE00E94CF0460EE71E080ED95E00E9454
:10169000BB0657CD0E94CF046AEF71E080ED95E064
:1016A0000E94BB0661E080E10E94CF046091540477
:1016B0007091550457CD8F36910509F086CD8981FB
:1016C0009A810F9709F081CD63CD86E00E94CF0407
:1016D0006AEF71E080ED95E00E94BB0662E087E072
:1016E0000E94CF0460914C0470914D0480914E048F
:1016F00090914F0442E0F2CD1F920F920FB60F92DD
:1017000011242F933F938F939F93AF93BF93809117
:101710001F0590912005A0912105B09122053091DF
:101720001E0523E0230F2D3758F50196A11DB11D8D
:1017300020931E0580931F0590932005A0932105FB
:10174000B09322058091230590912405A091250551
:10175000B09126050196A11DB11D8093230590939C
:101760002405A0932505B0932605BF91AF919F91C5
:101770008F913F912F910F900FBE0F901F90189552
:1017800026E8230F0296A11DB11DD2CF1F920F9202
:101790000FB60F9211242F933F934F935F936F9344
:1017A0007F938F939F93AF93BF93EF93FF9387E2C2
:1017B00095E00E942902FF91EF91BF91AF919F9117
:1017C0008F917F916F915F914F913F912F910F90EA
:1017D0000FBE0F901F9018951F920F920FB60F9289
:1017E00011242F938F939F93EF93FF93E0913705ED
:1017F000F09138058081E0913D05F0913E0582FD34
:101800001BC09081809140058F5F8F7320914105AF
:10181000821741F0E0914005F0E0E95DFA4F958FC5
:1018200080934005FF91EF919F918F912F910F90A1
:101830000FBE0F901F9018958081F4CF1F920F92CA
:101840000FB60F9211242F933F934F935F936F9393
:101850007F938F939F93AF93BF93EF93FF93809169
:10186000B900887F803609F44AC0F0F5883209F45F
:10187000A7C018F5803109F49BC0B8F4882309F497
:10188000F9C0883009F494C0FF91EF91BF91AF91F6
:101890009F918F917F916F915F914F913F912F9188
:1018A0000F900FBE0F901F901895883109F488C0D3
:1018B000803251F78093E60414C0803409F49DC04F
:1018C00040F48033B9F38833F9F68093E60485EC6D
:1018D000B0C0803509F485C0883509F496C08834D5
:1018E00099F60E94BD06D0CF883909F48CC038F52E
:1018F000883729F050F4883611F0803729F683E0D4
:101900008093E8041092C10457C0883809F47BC062
:10191000803919F0803809F0B7CF8091C104803246
:1019200008F071C0E091C10481E08E0F8093C10482
:101930008091BB00F0E0EF55FB4F80833DC0803BC2
:1019400039F0E0F4803A09F479C0883A09F09CCF84
:1019500084E08093E8041092A00410929F04E09128
:101960001205F0911305099580919F0481110FC014
:1019700081E080939F0410927F0409C0803C09F4A9
:10198000A6CF883C09F4A3CF883B09F07DCFE09136
:10199000A00481E08E0F8093A004F0E0E158FB4F9B
:1019A00080818093BB009091A00480919F0429C006
:1019B0008091C3048093BB0085EC8093BC0064CF0E
:1019C0009091E5048091E404981758F5E091E504BE
:1019D00081E08E0F8093E504F0E0EC53FB4F8081B3
:1019E000E9CFE091E50481E08E0F8093E5048091DA
:1019F000BB00F0E0EC53FB4F80839091E5048091B5
:101A0000E4049817C8F285E8D8CFE091E50481E0B6
:101A10008E0F8093E5048091BB00F0E0EC53FB4F08
:101A200080838091E70481115CCF81E08093C204C0
:101A300084EA8093BC001092E80426CF85EC809362
:101A4000BC001092E8048091C104803230F4E0912F
:101A5000C104F0E0EF55FB4F10826091C10470E0CB
:101A6000E0911005F091110581EA94E0099510923A
:101A7000C1040ACF1092E60434CF84E690E00E94BD
:101A80002A1190E090931905809318058E3F9105D7
:101A9000CCF18FE092E00E94C40565E272E087E23B
:101AA00095E00E94BB0680911805909119050E944F
:101AB000B10560E080E00E94CF0467E372E080ED52
:101AC00095E00E94BB0661E080E00E94CF046BE4D9
:101AD00072E080ED95E00E94BB0662E080E00E942B
:101AE000CF046FE572E080ED95E00E94BB0663E0F5
:101AF00080E00E94CF0463E772E080ED95E00E94F1
:101B0000BB06C7CF83E00E94B500892B91F580E02A
:101B10000E94B500019749F584E690E00E942A11E1
:101B20008093180585E690E00E942A11809319059C
:101B3000809118058F5F0E948F0484E690E00E94D8
:101B40002A11282F30E030931905209318050E94A0
:101B50008F0467E872E087E295E00E94BB068091FF
:101B60001805909119050E94B1050E9403050E9475
:101B7000F5060895E7E2F5E01382128288EE93E01D
:101B8000A0E0B0E084839583A683B7832CE131E0A5
:101B90003183208325EC30E03587248724EC30E046
:101BA0003787268720EC30E0318B208B21EC30E02A
:101BB000338B228B22EC30E0358B248B26EC30E00B
:101BC000378B268B118E128E138E148EE4ECF5E07B
:101BD0001382128284839583A683B7838EE291E079
:101BE00091838083EDEDF5E01486158616861786C1
:101BF000108A118A128A138A148A158A168A178AF9
:101C000080E090E0A0E0B0E480839183A283B3837E
:101C100084839583A683B7838AE097EDA3E2BCE330
:101C200080879187A287B387E0EDF5E01382128267
:101C300080E491E091838083118687E2848384E14C
:101C4000828784E0838714860895789484B58260BF
:101C500084BD84B5816084BD85B5826085BD85B550
:101C6000816085BD80916E00816080936E001092CE
:101C70008100809181008260809381008091810049
:101C800081608093810080918000816080938000DA
:101C90008091B10084608093B1008091B000816038
:101CA0008093B00080917A00846080937A00809164
:101CB0007A00826080937A0080917A0081608093BC
:101CC0007A0080917A00806880937A001092C10037
:101CD0001092170510921605109215051092140512
:101CE0000E94E00289EA91E0909313058093120527
:101CF0008AEA91E090931105809310051092D50522
:101D00008091DB05823018F098E09093D5058093A0
:101D1000D80562E370E080E090E00E947701609176
:101D2000DC0580ED95E00E94A50368EE73E080E09D
:101D300090E00E94770160E380ED95E00E949F04AF
:101D4000CBE4D6E4CE010197F1F760E380ED95E0B6
:101D50000E949F042197F1F760E380ED95E00E94D7
:101D60009F0483E592E00197F1F760E280ED95E052
:101D70000E949F046091D505606240E080ED95E08F
:101D80000E94B80484E08093D60540E06CE080EDCA
:101D900095E00E94B8040E94030582E08093D70575
:101DA00040E066E080ED95E00E94B80440E062E02B
:101DB00080ED95E00E94B8048BE39FE10197F1F775
:101DC00088E08093DC0560E080ED95E00E94A5034B
:101DD00040E060E480ED95E00E94B804C4E0D1E00A
:101DE000699180ED95E00E94160581E0CC30D8071E
:101DF000B9F70E940305E0913705F091380582E0BC
:101E00008083E0913705F09138051082E091330529
:101E1000F09134051082E0913505F091360580E1AE
:101E2000808310923F05E0913B05F0913C0586E0F0
:101E30008083E0913905F0913A058081806180834B
:101E4000E0913905F0913A05808188608083E091C6
:101E50003905F0913A05808180688083E0913905E9
:101E6000F0913A0580818F7D808362E084E00E945A
:101E70000C0162E083E00E940C0162E082E00E94BB
:101E80000C0162E087E00E940C0162E086E00E94A3
:101E90000C0162E085E00E940C0161E08BE00E9491
:101EA0000C0161E08AE00E940C0161E089E00E947F
:101EB0000C0180EA92E00E94C4058EEC92E00E9440
:101EC000C4058DEE92E00E94C4058CE093E00E9470
:101ED000C40584E393E00E94C40584E690E00E9478
:101EE0002A1190E090931905809318056EE473E031
:101EF00087E295E00E94BB06809118059091190534
:101F00000E94B105C0E0D0E086E00E94B500892BB8
:101F100041F487E00E94B500892B19F480E00E940B
:101F20008F0460E080E00E94CF0467E673E080EDFC
:101F300095E00E94BB0663E080E00E94CF0469E761
:101F400073E080ED95E00E94BB0661E080E00E94B6
:101F5000CF046CE873E080ED95E00E94BB0684E05E
:101F60000E94B500892B09F0C6C060E080E00E94A5
:101F7000CF046FE973E080ED95E00E94BB0661E05D
:101F800080E00E94CF0464EB73E080ED95E00E9456
:101F9000BB0662E080E00E94CF0469EC73E080ED54
:101FA00095E00E94BB0663E080E00E94CF046EEDE6
:101FB00073E080ED95E00E94BB06CFE6D0E00EE135
:101FC00010E08EEDE82EF12C9CE3C92ED12C82E09E
:101FD0000E94B500892BE1F5D0931D05C0931C0527
:101FE00010931B0500931A0560E080E00E94CF0467
:101FF00063EF73E080ED95E00E94BB0661E085E051
:102000000E94CF0460911A0570911B0580ED95E048
:102010000E94770561E087E00E94CF0468E074E0E9
:1020200080ED95E00E94BB0662E080E00E94CF0454
:102030006DE174E080ED95E00E94BB0663E080E016
:102040000E94CF0462E374E080ED95E00E94BB063D
:1020500080911A0590911B054E9711F40E943D0D39
:1020600087E00E94B500892BE1F5F0921D05E09212
:102070001C05D0921B05C0921A0560E080E00E940A
:10208000CF0463EF73E080ED95E00E94BB0661E052
:1020900085E00E94CF0460911A0570911B0580EDC8
:1020A00095E00E94770561E087E00E94CF0468E038
:1020B00074E080ED95E00E94BB0662E080E00E9443
:1020C000CF046DE174E080ED95E00E94BB0663E013
:1020D00080E00E94CF0462E374E080ED95E00E940E
:1020E000BB0680911A0590911B05CC9709F06FCF24
:1020F0000E943D0D6CCF209709F406CF0E94150277
:10210000882309F401CF0E940000FECE8F929F9297
:10211000AF92BF92CF92DF92EF92FF92CF93DF9375
:10212000EC01688179818A819B8161157105810546
:10213000910521F464E279ED8BE597E02DE133EF31
:1021400041E050E00E94401149015A019B01AC015D
:10215000A7EAB1E40E945F116B017C01ACEEB4EF21
:10216000A50194010E946D11C60ED71EE81EF91E2E
:10217000F7FE06C081E0C81AD108E10880E8F80A35
:10218000C882D982EA82FB82C701B6019F77DF91BC
:10219000CF91FF90EF90DF90CF90BF90AF909F9046
:1021A0008F9008958F929F92AF92BF92CF92DF92BD
:1021B000EF92FF9260910C0170910D0180910E01E0
:1021C00090910F01611571058105910521F464E27B
:1021D00079ED8BE597E02DE133EF41E050E00E948F
:1021E000401149015A019B01AC01A7EAB1E40E94E8
:1021F0005F116B017C01ACEEB4EFA50194010E946C
:102200006D11C60ED71EE81EF91EF7FE06C081E04E
:10221000C81AD108E10880E8F80AC0920C01D092EF
:102220000D01E0920E01F0920F01C701B6019F77F8
:10223000FF90EF90DF90CF90BF90AF909F908F90E6
:10224000089560930C0170930D0180930E0190939B
:102250000F010895F999FECF92BD81BDF89A992793
:1022600080B50895262FF999FECF1FBA92BD81BD82
:1022700020BD0FB6F894FA9AF99A0FBE0196089508
:10228000052E97FB1EF400940E94571157FD07D0AE
:102290000E94721107FC03D04EF40C945711509514
:1022A0004095309521953F4F4F4F5F4F0895909542
:1022B0008095709561957F4F8F4F9F4F08950E9435
:1022C0009411A59F900DB49F900DA49F800D911D1A
:1022D00011240895B7FF0C945F110E945F11821BB7
:1022E000930B0895A1E21A2EAA1BBB1BFD010DC082
:1022F000AA1FBB1FEE1FFF1FA217B307E407F507B6
:1023000020F0A21BB30BE40BF50B661F771F881F91
:10231000991F1A9469F760957095809590959B0127
:10232000AC01BD01CF010895A29FB001B39FC001D0
:10233000A39F700D811D1124911DB29F700D811DF1
:102340001124911D08955058BB27AA270E94BB1144
:102350000C942E130E94201338F00E94271320F0B3
:1023600039F49F3F19F426F40C941D130EF4E095F4
:10237000E7FB0C941713E92F0E943F1358F3BA1789
:10238000620773078407950720F079F4A6F50C948B
:1023900061130EF4E0950B2EBA2FA02D0B01B9019D
:1023A00090010C01CA01A0011124FF27591B99F0CB
:1023B000593F50F4503E68F11A16F040A22F232FD7
:1023C000342F4427585FF3CF469537952795A79527
:1023D000F0405395C9F77EF41F16BA0B620B730BCE
:1023E000840BBAF09150A1F0FF0FBB1F661F771F3F
:1023F000881FC2F70EC0BA0F621F731F841F48F4F4
:10240000879577956795B795F7959E3F08F0B0CF7C
:102410009395880F08F09927EE0F97958795089563
:102420000E94F31208F481E008950E9429120C948E
:102430002E130E94271358F00E94201340F029F415
:102440005F3F29F00C94171351110C9462130C94F4
:102450001D130E943F1368F39923B1F3552391F3A1
:10246000951B550BBB27AA2762177307840738F003
:102470009F5F5F4F220F331F441FAA1FA9F335D060
:102480000E2E3AF0E0E832D091505040E695001C14
:10249000CAF72BD0FE2F29D0660F771F881FBB1FCE
:1024A000261737074807AB07B0E809F0BB0B802DAC
:1024B000BF01FF2793585F4F3AF09E3F510578F0D8
:1024C0000C9417130C9462135F3FE4F3983ED4F31B
:1024D000869577956795B795F7959F5FC9F7880FAC
:1024E000911D9695879597F90895E1E0660F771FFE
:1024F000881FBB1F621773078407BA0720F0621B8F
:10250000730B840BBA0BEE1F88F7E09508950E94B9
:10251000471388F09F5798F0B92F9927B751B0F01B
:10252000E1F0660F771F881F991F1AF0BA95C9F757
:1025300014C0B13091F00E946113B1E008950C9481
:102540006113672F782F8827B85F39F0B93FCCF334
:10255000869577956795B395D9F73EF490958095D4
:10256000709561957F4F8F4F9F4F0895E89409C0F4
:1025700097FB3EF490958095709561957F4F8F4FB6
:102580009F4F9923A9F0F92F96E9BB279395F695CC
:10259000879577956795B795F111F8CFFAF4BB0F4A
:1025A00011F460FF1BC06F5F7F4F8F4F9F4F16C0AE
:1025B000882311F096E911C0772321F09EE8872F38
:1025C000762F05C0662371F096E8862F70E060E0F4
:1025D0002AF09A95660F771F881FDAF7880F96956D
:1025E000879597F90895990F0008550FAA0BE0E811
:1025F000FEEF16161706E807F907C0F012161306C5
:10260000E407F50798F0621B730B840B950B39F404
:102610000A2661F0232B242B252B21F408950A266A
:1026200009F4A140A6958FEF811D811D089597F9AA
:102630009F6780E870E060E008959FEF80EC089568
:1026400000240A9416161706180609060895002491
:102650000A9412161306140605060895092E03940B
:10266000000C11F4882352F0BB0F40F4BF2B11F47F
:1026700060FF04C06F5F7F4F8F4F9F4F089557FDDE
:102680009058440F551F59F05F3F71F04795880FE0
:1026900097FB991F61F09F3F79F087950895121677
:1026A00013061406551FF2CF4695F1DF08C0161623
:1026B00017061806991FF1CF8695710561050894D4
:1026C0000895E894BB2766277727CB0197F90895EB
:1026D0000E94F31208F48FEF08950E9480130C9467
:1026E0002E130E94201338F00E94271320F0952308
:1026F00011F00C9417130C941D1311240C946213F5
:102700000E943F1370F3959FC1F3950F50E0551F42
:10271000629FF001729FBB27F00DB11D639FAA2736
:10272000F00DB11DAA1F649F6627B00DA11D661F85
:10273000829F2227B00DA11D621F739FB00DA11DA6
:10274000621F839FA00D611D221F749F3327A00D60
:10275000611D231F849F600D211D822F762F6A2FFC
:1027600011249F5750409AF0F1F088234AF0EE0F61
:10277000FF1FBB1F661F771F881F91505040A9F78E
:102780009E3F510580F00C9417130C9462135F3F29
:10279000E4F3983ED4F3869577956795B795F795CA
:1027A000E7959F5FC1F7FE2B880F911D9695879542
:1027B00097F908950E94F312880B990B0895EE0F74
:0E27C000FF1F0590F491E02D0994F894FFCFCF
:1027CE000000803F07050700000000000100000028
:1027DE000000400014005400000000004B02AB014A
:1027EE00D80198020902E701FB0100000000760300
:1027FE0049038C041F0342032F0320030000000033
:10280E001605AB018C04B8020D0A006E616E0069EC
:10281E006E66006F7666002020202A2A2A2A20451E
:10282E0072726F72202A2A2A2A200020202020204D
:10283E004368616E67205761746572002020202006
:10284E002850617573652054696D6529202020001C
:10285E00202020202020202020202020202020206A
:10286E00202020005072657373204F4B2028636F19
:10287E006E74696E756529002020202052455345DF
:10288E00542044455649434520202000202020282E
:10289E0054696D6520456C61707365642920200054
:1028AE003A00282800292900504F532B2035302577
:1028BE00004E45472D20353025003000566F75747B
:1028CE003D00416F75743D0054656D7000430020EE
:1028DE0020202855504441544520444556494345EF
:1028EE002920202000636F756E74657220646576F2
:1028FE00696365203D2000202028555044415445F1
:10290E0020444556494345292020002020282050A8
:10291E004C454153452043414C4C20292020002852
:10292E007777772E656D70746865726170792E6930
:10293E007229002020285448414E4B5320464F52B6
:10294E0020594F55292000436F756E7465722044CF
:10295E00657669636520576F726B696E673D2000FF
:10296E003D3D204445564943452054455854204446
:10297E004154412C53484F57204F4E2053455249F6
:10298E00414C204D4F4E49544F52203D3D00496F12
:10299E006E20436C65616E204F6C642044657369D4
:1029AE00676E20313338382F392F323300496F6E2E
:1029BE0020436C65616E204E6577204465736967B0
:1029CE006E20313430322F332F313500546865206C
:1029DE0043726561746F7220262044657369676E59
:1029EE006572206279204B616D62697A204B657247
:1029FE006163680050686F6E65204E756D6265721A
:102A0E003A20303931323132303133373200436F80
:102A1E00756E7465722044657669636520576F72B2
:102A2E006B6564203D20002020496F6E20436C654D
:102A3E00616E204865616C6500205072657373206D
:102A4E004F6B20546F205365747570002077777725
:102A5E002E656D70746865726170792E69720020D2
:102A6E00202020205072657373204B6579202B2017
:102A7E00202020002020202020283630204D696E76
:102A8E0075746529202020200020202020205072DF
:102A9E00657373204B6579202D2020202000202087
:102AAE00202020283330204D696E75746529202032
:102ABE0020200020202028546865726170792054EF
:102ACE00696D65292020200020204D696E75746582
:102ADE002020202020202020202020200020504FA9
:102AEE00532B2035302520204E45472D20353025BF
:102AFE00200020205072657373205374617274200D
:082B0E004B6579202020000036
:00000001FF
